{
  "_format": "hh-sol-artifact-1",
  "contractName": "Titans",
  "sourceName": "contracts/myNFT.sol",
  "abi": [
    {
      "inputs": [],
      "stateMutability": "nonpayable",
      "type": "constructor"
    },
    {
      "anonymous": false,
      "inputs": [
        {
          "indexed": true,
          "internalType": "address",
          "name": "owner",
          "type": "address"
        },
        {
          "indexed": true,
          "internalType": "address",
          "name": "approved",
          "type": "address"
        },
        {
          "indexed": true,
          "internalType": "uint256",
          "name": "tokenId",
          "type": "uint256"
        }
      ],
      "name": "Approval",
      "type": "event"
    },
    {
      "anonymous": false,
      "inputs": [
        {
          "indexed": true,
          "internalType": "address",
          "name": "owner",
          "type": "address"
        },
        {
          "indexed": true,
          "internalType": "address",
          "name": "operator",
          "type": "address"
        },
        {
          "indexed": false,
          "internalType": "bool",
          "name": "approved",
          "type": "bool"
        }
      ],
      "name": "ApprovalForAll",
      "type": "event"
    },
    {
      "anonymous": false,
      "inputs": [
        {
          "indexed": true,
          "internalType": "address",
          "name": "from",
          "type": "address"
        },
        {
          "indexed": true,
          "internalType": "address",
          "name": "to",
          "type": "address"
        },
        {
          "indexed": true,
          "internalType": "uint256",
          "name": "tokenId",
          "type": "uint256"
        }
      ],
      "name": "Transfer",
      "type": "event"
    },
    {
      "inputs": [
        {
          "internalType": "address",
          "name": "to",
          "type": "address"
        },
        {
          "internalType": "uint256",
          "name": "tokenId",
          "type": "uint256"
        }
      ],
      "name": "approve",
      "outputs": [],
      "stateMutability": "nonpayable",
      "type": "function"
    },
    {
      "inputs": [
        {
          "internalType": "address",
          "name": "owner",
          "type": "address"
        }
      ],
      "name": "balanceOf",
      "outputs": [
        {
          "internalType": "uint256",
          "name": "",
          "type": "uint256"
        }
      ],
      "stateMutability": "view",
      "type": "function"
    },
    {
      "inputs": [
        {
          "internalType": "uint256",
          "name": "tokenId",
          "type": "uint256"
        }
      ],
      "name": "getApproved",
      "outputs": [
        {
          "internalType": "address",
          "name": "",
          "type": "address"
        }
      ],
      "stateMutability": "view",
      "type": "function"
    },
    {
      "inputs": [
        {
          "internalType": "address",
          "name": "owner",
          "type": "address"
        },
        {
          "internalType": "address",
          "name": "operator",
          "type": "address"
        }
      ],
      "name": "isApprovedForAll",
      "outputs": [
        {
          "internalType": "bool",
          "name": "",
          "type": "bool"
        }
      ],
      "stateMutability": "view",
      "type": "function"
    },
    {
      "inputs": [],
      "name": "name",
      "outputs": [
        {
          "internalType": "string",
          "name": "",
          "type": "string"
        }
      ],
      "stateMutability": "view",
      "type": "function"
    },
    {
      "inputs": [
        {
          "internalType": "uint256",
          "name": "tokenId",
          "type": "uint256"
        }
      ],
      "name": "ownerOf",
      "outputs": [
        {
          "internalType": "address",
          "name": "",
          "type": "address"
        }
      ],
      "stateMutability": "view",
      "type": "function"
    },
    {
      "inputs": [
        {
          "internalType": "address",
          "name": "to",
          "type": "address"
        },
        {
          "internalType": "string",
          "name": "uri",
          "type": "string"
        }
      ],
      "name": "safeMint",
      "outputs": [],
      "stateMutability": "nonpayable",
      "type": "function"
    },
    {
      "inputs": [
        {
          "internalType": "address",
          "name": "from",
          "type": "address"
        },
        {
          "internalType": "address",
          "name": "to",
          "type": "address"
        },
        {
          "internalType": "uint256",
          "name": "tokenId",
          "type": "uint256"
        }
      ],
      "name": "safeTransferFrom",
      "outputs": [],
      "stateMutability": "nonpayable",
      "type": "function"
    },
    {
      "inputs": [
        {
          "internalType": "address",
          "name": "from",
          "type": "address"
        },
        {
          "internalType": "address",
          "name": "to",
          "type": "address"
        },
        {
          "internalType": "uint256",
          "name": "tokenId",
          "type": "uint256"
        },
        {
          "internalType": "bytes",
          "name": "data",
          "type": "bytes"
        }
      ],
      "name": "safeTransferFrom",
      "outputs": [],
      "stateMutability": "nonpayable",
      "type": "function"
    },
    {
      "inputs": [
        {
          "internalType": "address",
          "name": "operator",
          "type": "address"
        },
        {
          "internalType": "bool",
          "name": "approved",
          "type": "bool"
        }
      ],
      "name": "setApprovalForAll",
      "outputs": [],
      "stateMutability": "nonpayable",
      "type": "function"
    },
    {
      "inputs": [
        {
          "internalType": "bytes4",
          "name": "interfaceId",
          "type": "bytes4"
        }
      ],
      "name": "supportsInterface",
      "outputs": [
        {
          "internalType": "bool",
          "name": "",
          "type": "bool"
        }
      ],
      "stateMutability": "view",
      "type": "function"
    },
    {
      "inputs": [],
      "name": "symbol",
      "outputs": [
        {
          "internalType": "string",
          "name": "",
          "type": "string"
        }
      ],
      "stateMutability": "view",
      "type": "function"
    },
    {
      "inputs": [
        {
          "internalType": "uint256",
          "name": "index",
          "type": "uint256"
        }
      ],
      "name": "tokenByIndex",
      "outputs": [
        {
          "internalType": "uint256",
          "name": "",
          "type": "uint256"
        }
      ],
      "stateMutability": "view",
      "type": "function"
    },
    {
      "inputs": [
        {
          "internalType": "address",
          "name": "owner",
          "type": "address"
        },
        {
          "internalType": "uint256",
          "name": "index",
          "type": "uint256"
        }
      ],
      "name": "tokenOfOwnerByIndex",
      "outputs": [
        {
          "internalType": "uint256",
          "name": "",
          "type": "uint256"
        }
      ],
      "stateMutability": "view",
      "type": "function"
    },
    {
      "inputs": [
        {
          "internalType": "uint256",
          "name": "tokenId",
          "type": "uint256"
        }
      ],
      "name": "tokenURI",
      "outputs": [
        {
          "internalType": "string",
          "name": "",
          "type": "string"
        }
      ],
      "stateMutability": "view",
      "type": "function"
    },
    {
      "inputs": [],
      "name": "totalSupply",
      "outputs": [
        {
          "internalType": "uint256",
          "name": "",
          "type": "uint256"
        }
      ],
      "stateMutability": "view",
      "type": "function"
    },
    {
      "inputs": [
        {
          "internalType": "address",
          "name": "from",
          "type": "address"
        },
        {
          "internalType": "address",
          "name": "to",
          "type": "address"
        },
        {
          "internalType": "uint256",
          "name": "tokenId",
          "type": "uint256"
        }
      ],
      "name": "transferFrom",
      "outputs": [],
      "stateMutability": "nonpayable",
      "type": "function"
    }
  ],
  "bytecode": "0x6080604052612710600c556005600d553480156200001c57600080fd5b506040518060400160405280600681526020017f546974616e7300000000000000000000000000000000000000000000000000008152506040518060400160405280600381526020017f54544e000000000000000000000000000000000000000000000000000000000081525081600090816200009a91906200032f565b508060019081620000ac91906200032f565b50505062000416565b600081519050919050565b7f4e487b7100000000000000000000000000000000000000000000000000000000600052604160045260246000fd5b7f4e487b7100000000000000000000000000000000000000000000000000000000600052602260045260246000fd5b600060028204905060018216806200013757607f821691505b6020821081036200014d576200014c620000ef565b5b50919050565b60008190508160005260206000209050919050565b60006020601f8301049050919050565b600082821b905092915050565b600060088302620001b77fffffffffffffffffffffffffffffffffffffffffffffffffffffffffffffffff8262000178565b620001c3868362000178565b95508019841693508086168417925050509392505050565b6000819050919050565b6000819050919050565b6000620002106200020a6200020484620001db565b620001e5565b620001db565b9050919050565b6000819050919050565b6200022c83620001ef565b620002446200023b8262000217565b84845462000185565b825550505050565b600090565b6200025b6200024c565b6200026881848462000221565b505050565b5b8181101562000290576200028460008262000251565b6001810190506200026e565b5050565b601f821115620002df57620002a98162000153565b620002b48462000168565b81016020851015620002c4578190505b620002dc620002d38562000168565b8301826200026d565b50505b505050565b600082821c905092915050565b60006200030460001984600802620002e4565b1980831691505092915050565b60006200031f8383620002f1565b9150826002028217905092915050565b6200033a82620000b5565b67ffffffffffffffff811115620003565762000355620000c0565b5b6200036282546200011e565b6200036f82828562000294565b600060209050601f831160018114620003a7576000841562000392578287015190505b6200039e858262000311565b8655506200040e565b601f198416620003b78662000153565b60005b82811015620003e157848901518255600182019150602085019450602081019050620003ba565b86831015620004015784890151620003fd601f891682620002f1565b8355505b6001600288020188555050505b505050505050565b61349480620004266000396000f3fe608060405234801561001057600080fd5b506004361061010b5760003560e01c80634f6ccce7116100a2578063a22cb46511610071578063a22cb465146102de578063b88d4fde146102fa578063c87b56dd14610316578063d204c45e14610346578063e985e9c5146103625761010b565b80634f6ccce7146102305780636352211e1461026057806370a082311461029057806395d89b41146102c05761010b565b806318160ddd116100de57806318160ddd146101aa57806323b872dd146101c85780632f745c59146101e457806342842e0e146102145761010b565b806301ffc9a71461011057806306fdde0314610140578063081812fc1461015e578063095ea7b31461018e575b600080fd5b61012a60048036038101906101259190611fc2565b610392565b604051610137919061200a565b60405180910390f35b6101486103a4565b60405161015591906120b5565b60405180910390f35b6101786004803603810190610173919061210d565b610436565b604051610185919061217b565b60405180910390f35b6101a860048036038101906101a391906121c2565b61047c565b005b6101b2610593565b6040516101bf9190612211565b60405180910390f35b6101e260048036038101906101dd919061222c565b6105a0565b005b6101fe60048036038101906101f991906121c2565b610600565b60405161020b9190612211565b60405180910390f35b61022e6004803603810190610229919061222c565b6106a5565b005b61024a6004803603810190610245919061210d565b6106c5565b6040516102579190612211565b60405180910390f35b61027a6004803603810190610275919061210d565b610736565b604051610287919061217b565b60405180910390f35b6102aa60048036038101906102a5919061227f565b6107e7565b6040516102b79190612211565b60405180910390f35b6102c861089e565b6040516102d591906120b5565b60405180910390f35b6102f860048036038101906102f391906122d8565b610930565b005b610314600480360381019061030f919061244d565b610946565b005b610330600480360381019061032b919061210d565b6109a8565b60405161033d91906120b5565b60405180910390f35b610360600480360381019061035b9190612571565b6109ba565b005b61037c600480360381019061037791906125cd565b610b11565b604051610389919061200a565b60405180910390f35b600061039d82610ba5565b9050919050565b6060600080546103b39061263c565b80601f01602080910402602001604051908101604052809291908181526020018280546103df9061263c565b801561042c5780601f106104015761010080835404028352916020019161042c565b820191906000526020600020905b81548152906001019060200180831161040f57829003601f168201915b5050505050905090565b600061044182610c1f565b6004600083815260200190815260200160002060009054906101000a900473ffffffffffffffffffffffffffffffffffffffff169050919050565b600061048782610736565b90508073ffffffffffffffffffffffffffffffffffffffff168373ffffffffffffffffffffffffffffffffffffffff16036104f7576040517f08c379a00000000000000000000000000000000000000000000000000000000081526004016104ee906126df565b60405180910390fd5b8073ffffffffffffffffffffffffffffffffffffffff16610516610c6a565b73ffffffffffffffffffffffffffffffffffffffff16148061054557506105448161053f610c6a565b610b11565b5b610584576040517f08c379a000000000000000000000000000000000000000000000000000000000815260040161057b90612771565b60405180910390fd5b61058e8383610c72565b505050565b6000600880549050905090565b6105b16105ab610c6a565b82610d2b565b6105f0576040517f08c379a00000000000000000000000000000000000000000000000000000000081526004016105e790612803565b60405180910390fd5b6105fb838383610dc0565b505050565b600061060b836107e7565b821061064c576040517f08c379a000000000000000000000000000000000000000000000000000000000815260040161064390612895565b60405180910390fd5b600660008473ffffffffffffffffffffffffffffffffffffffff1673ffffffffffffffffffffffffffffffffffffffff168152602001908152602001600020600083815260200190815260200160002054905092915050565b6106c083838360405180602001604052806000815250610946565b505050565b60006106cf610593565b8210610710576040517f08c379a000000000000000000000000000000000000000000000000000000000815260040161070790612927565b60405180910390fd5b6008828154811061072457610723612947565b5b90600052602060002001549050919050565b6000806002600084815260200190815260200160002060009054906101000a900473ffffffffffffffffffffffffffffffffffffffff169050600073ffffffffffffffffffffffffffffffffffffffff168173ffffffffffffffffffffffffffffffffffffffff16036107de576040517f08c379a00000000000000000000000000000000000000000000000000000000081526004016107d5906129c2565b60405180910390fd5b80915050919050565b60008073ffffffffffffffffffffffffffffffffffffffff168273ffffffffffffffffffffffffffffffffffffffff1603610857576040517f08c379a000000000000000000000000000000000000000000000000000000000815260040161084e90612a54565b60405180910390fd5b600360008373ffffffffffffffffffffffffffffffffffffffff1673ffffffffffffffffffffffffffffffffffffffff168152602001908152602001600020549050919050565b6060600180546108ad9061263c565b80601f01602080910402602001604051908101604052809291908181526020018280546108d99061263c565b80156109265780601f106108fb57610100808354040283529160200191610926565b820191906000526020600020905b81548152906001019060200180831161090957829003601f168201915b5050505050905090565b61094261093b610c6a565b8383611026565b5050565b610957610951610c6a565b83610d2b565b610996576040517f08c379a000000000000000000000000000000000000000000000000000000000815260040161098d90612803565b60405180910390fd5b6109a284848484611192565b50505050565b60606109b3826111ee565b9050919050565b600c546109c7600b611300565b1115610a08576040517f08c379a00000000000000000000000000000000000000000000000000000000081526004016109ff90612ac0565b60405180910390fd5b600d54600e60008473ffffffffffffffffffffffffffffffffffffffff1673ffffffffffffffffffffffffffffffffffffffff1681526020019081526020016000205410610a8b576040517f08c379a0000000000000000000000000000000000000000000000000000000008152600401610a8290612b52565b60405180910390fd5b6000610a97600b611300565b9050610aa3600b61130e565b600e60008473ffffffffffffffffffffffffffffffffffffffff1673ffffffffffffffffffffffffffffffffffffffff1681526020019081526020016000206000815480929190610af390612ba1565b9190505550610b028382611324565b610b0c8183611342565b505050565b6000600560008473ffffffffffffffffffffffffffffffffffffffff1673ffffffffffffffffffffffffffffffffffffffff16815260200190815260200160002060008373ffffffffffffffffffffffffffffffffffffffff1673ffffffffffffffffffffffffffffffffffffffff16815260200190815260200160002060009054906101000a900460ff16905092915050565b60007f780e9d63000000000000000000000000000000000000000000000000000000007bffffffffffffffffffffffffffffffffffffffffffffffffffffffff1916827bffffffffffffffffffffffffffffffffffffffffffffffffffffffff19161480610c185750610c17826113af565b5b9050919050565b610c2881611491565b610c67576040517f08c379a0000000000000000000000000000000000000000000000000000000008152600401610c5e906129c2565b60405180910390fd5b50565b600033905090565b816004600083815260200190815260200160002060006101000a81548173ffffffffffffffffffffffffffffffffffffffff021916908373ffffffffffffffffffffffffffffffffffffffff160217905550808273ffffffffffffffffffffffffffffffffffffffff16610ce583610736565b73ffffffffffffffffffffffffffffffffffffffff167f8c5be1e5ebec7d5bd14f71427d1e84f3dd0314c0f7b2291e5b200ac8c7c3b92560405160405180910390a45050565b600080610d3783610736565b90508073ffffffffffffffffffffffffffffffffffffffff168473ffffffffffffffffffffffffffffffffffffffff161480610d795750610d788185610b11565b5b80610db757508373ffffffffffffffffffffffffffffffffffffffff16610d9f84610436565b73ffffffffffffffffffffffffffffffffffffffff16145b91505092915050565b8273ffffffffffffffffffffffffffffffffffffffff16610de082610736565b73ffffffffffffffffffffffffffffffffffffffff1614610e36576040517f08c379a0000000000000000000000000000000000000000000000000000000008152600401610e2d90612c5b565b60405180910390fd5b600073ffffffffffffffffffffffffffffffffffffffff168273ffffffffffffffffffffffffffffffffffffffff1603610ea5576040517f08c379a0000000000000000000000000000000000000000000000000000000008152600401610e9c90612ced565b60405180910390fd5b610eb08383836114fd565b610ebb600082610c72565b6001600360008573ffffffffffffffffffffffffffffffffffffffff1673ffffffffffffffffffffffffffffffffffffffff1681526020019081526020016000206000828254610f0b9190612d0d565b925050819055506001600360008473ffffffffffffffffffffffffffffffffffffffff1673ffffffffffffffffffffffffffffffffffffffff1681526020019081526020016000206000828254610f629190612d41565b92505081905550816002600083815260200190815260200160002060006101000a81548173ffffffffffffffffffffffffffffffffffffffff021916908373ffffffffffffffffffffffffffffffffffffffff160217905550808273ffffffffffffffffffffffffffffffffffffffff168473ffffffffffffffffffffffffffffffffffffffff167fddf252ad1be2c89b69c2b068fc378daa952ba7f163c4a11628f55a4df523b3ef60405160405180910390a461102183838361150d565b505050565b8173ffffffffffffffffffffffffffffffffffffffff168373ffffffffffffffffffffffffffffffffffffffff1603611094576040517f08c379a000000000000000000000000000000000000000000000000000000000815260040161108b90612dc1565b60405180910390fd5b80600560008573ffffffffffffffffffffffffffffffffffffffff1673ffffffffffffffffffffffffffffffffffffffff16815260200190815260200160002060008473ffffffffffffffffffffffffffffffffffffffff1673ffffffffffffffffffffffffffffffffffffffff16815260200190815260200160002060006101000a81548160ff0219169083151502179055508173ffffffffffffffffffffffffffffffffffffffff168373ffffffffffffffffffffffffffffffffffffffff167f17307eab39ab6107e8899845ad3d59bd9653f200f220920489ca2b5937696c3183604051611185919061200a565b60405180910390a3505050565b61119d848484610dc0565b6111a984848484611512565b6111e8576040517f08c379a00000000000000000000000000000000000000000000000000000000081526004016111df90612e53565b60405180910390fd5b50505050565b60606111f982610c1f565b6000600a600084815260200190815260200160002080546112199061263c565b80601f01602080910402602001604051908101604052809291908181526020018280546112459061263c565b80156112925780601f1061126757610100808354040283529160200191611292565b820191906000526020600020905b81548152906001019060200180831161127557829003601f168201915b5050505050905060006112a3611699565b905060008151036112b85781925050506112fb565b6000825111156112ed5780826040516020016112d5929190612eaf565b604051602081830303815290604052925050506112fb565b6112f6846116b0565b925050505b919050565b600081600001549050919050565b6001816000016000828254019250508190555050565b61133e828260405180602001604052806000815250611718565b5050565b61134b82611491565b61138a576040517f08c379a000000000000000000000000000000000000000000000000000000000815260040161138190612f45565b60405180910390fd5b80600a600084815260200190815260200160002090816113aa9190613111565b505050565b60007f80ac58cd000000000000000000000000000000000000000000000000000000007bffffffffffffffffffffffffffffffffffffffffffffffffffffffff1916827bffffffffffffffffffffffffffffffffffffffffffffffffffffffff1916148061147a57507f5b5e139f000000000000000000000000000000000000000000000000000000007bffffffffffffffffffffffffffffffffffffffffffffffffffffffff1916827bffffffffffffffffffffffffffffffffffffffffffffffffffffffff1916145b8061148a575061148982611773565b5b9050919050565b60008073ffffffffffffffffffffffffffffffffffffffff166002600084815260200190815260200160002060009054906101000a900473ffffffffffffffffffffffffffffffffffffffff1673ffffffffffffffffffffffffffffffffffffffff1614159050919050565b6115088383836117dd565b505050565b505050565b60006115338473ffffffffffffffffffffffffffffffffffffffff166118ef565b1561168c578373ffffffffffffffffffffffffffffffffffffffff1663150b7a0261155c610c6a565b8786866040518563ffffffff1660e01b815260040161157e9493929190613238565b6020604051808303816000875af19250505080156115ba57506040513d601f19601f820116820180604052508101906115b79190613299565b60015b61163c573d80600081146115ea576040519150601f19603f3d011682016040523d82523d6000602084013e6115ef565b606091505b506000815103611634576040517f08c379a000000000000000000000000000000000000000000000000000000000815260040161162b90612e53565b60405180910390fd5b805181602001fd5b63150b7a0260e01b7bffffffffffffffffffffffffffffffffffffffffffffffffffffffff1916817bffffffffffffffffffffffffffffffffffffffffffffffffffffffff191614915050611691565b600190505b949350505050565b606060405180602001604052806000815250905090565b60606116bb82610c1f565b60006116c5611699565b905060008151116116e55760405180602001604052806000815250611710565b806116ef84611912565b604051602001611700929190612eaf565b6040516020818303038152906040525b915050919050565b6117228383611a72565b61172f6000848484611512565b61176e576040517f08c379a000000000000000000000000000000000000000000000000000000000815260040161176590612e53565b60405180910390fd5b505050565b60007f01ffc9a7000000000000000000000000000000000000000000000000000000007bffffffffffffffffffffffffffffffffffffffffffffffffffffffff1916827bffffffffffffffffffffffffffffffffffffffffffffffffffffffff1916149050919050565b6117e8838383611c4b565b600073ffffffffffffffffffffffffffffffffffffffff168373ffffffffffffffffffffffffffffffffffffffff160361182a5761182581611c50565b611869565b8173ffffffffffffffffffffffffffffffffffffffff168373ffffffffffffffffffffffffffffffffffffffff1614611868576118678382611c99565b5b5b600073ffffffffffffffffffffffffffffffffffffffff168273ffffffffffffffffffffffffffffffffffffffff16036118ab576118a681611e06565b6118ea565b8273ffffffffffffffffffffffffffffffffffffffff168273ffffffffffffffffffffffffffffffffffffffff16146118e9576118e88282611ed7565b5b5b505050565b6000808273ffffffffffffffffffffffffffffffffffffffff163b119050919050565b606060008203611959576040518060400160405280600181526020017f30000000000000000000000000000000000000000000000000000000000000008152509050611a6d565b600082905060005b6000821461198b57808061197490612ba1565b915050600a8261198491906132f5565b9150611961565b60008167ffffffffffffffff8111156119a7576119a6612322565b5b6040519080825280601f01601f1916602001820160405280156119d95781602001600182028036833780820191505090505b5090505b60008514611a66576001826119f29190612d0d565b9150600a85611a019190613326565b6030611a0d9190612d41565b60f81b818381518110611a2357611a22612947565b5b60200101907effffffffffffffffffffffffffffffffffffffffffffffffffffffffffffff1916908160001a905350600a85611a5f91906132f5565b94506119dd565b8093505050505b919050565b600073ffffffffffffffffffffffffffffffffffffffff168273ffffffffffffffffffffffffffffffffffffffff1603611ae1576040517f08c379a0000000000000000000000000000000000000000000000000000000008152600401611ad8906133a3565b60405180910390fd5b611aea81611491565b15611b2a576040517f08c379a0000000000000000000000000000000000000000000000000000000008152600401611b219061340f565b60405180910390fd5b611b36600083836114fd565b6001600360008473ffffffffffffffffffffffffffffffffffffffff1673ffffffffffffffffffffffffffffffffffffffff1681526020019081526020016000206000828254611b869190612d41565b92505081905550816002600083815260200190815260200160002060006101000a81548173ffffffffffffffffffffffffffffffffffffffff021916908373ffffffffffffffffffffffffffffffffffffffff160217905550808273ffffffffffffffffffffffffffffffffffffffff16600073ffffffffffffffffffffffffffffffffffffffff167fddf252ad1be2c89b69c2b068fc378daa952ba7f163c4a11628f55a4df523b3ef60405160405180910390a4611c476000838361150d565b5050565b505050565b6008805490506009600083815260200190815260200160002081905550600881908060018154018082558091505060019003906000526020600020016000909190919091505550565b60006001611ca6846107e7565b611cb09190612d0d565b9050600060076000848152602001908152602001600020549050818114611d95576000600660008673ffffffffffffffffffffffffffffffffffffffff1673ffffffffffffffffffffffffffffffffffffffff168152602001908152602001600020600084815260200190815260200160002054905080600660008773ffffffffffffffffffffffffffffffffffffffff1673ffffffffffffffffffffffffffffffffffffffff168152602001908152602001600020600084815260200190815260200160002081905550816007600083815260200190815260200160002081905550505b6007600084815260200190815260200160002060009055600660008573ffffffffffffffffffffffffffffffffffffffff1673ffffffffffffffffffffffffffffffffffffffff16815260200190815260200160002060008381526020019081526020016000206000905550505050565b60006001600880549050611e1a9190612d0d565b9050600060096000848152602001908152602001600020549050600060088381548110611e4a57611e49612947565b5b906000526020600020015490508060088381548110611e6c57611e6b612947565b5b906000526020600020018190555081600960008381526020019081526020016000208190555060096000858152602001908152602001600020600090556008805480611ebb57611eba61342f565b5b6001900381819060005260206000200160009055905550505050565b6000611ee2836107e7565b905081600660008573ffffffffffffffffffffffffffffffffffffffff1673ffffffffffffffffffffffffffffffffffffffff168152602001908152602001600020600083815260200190815260200160002081905550806007600084815260200190815260200160002081905550505050565b6000604051905090565b600080fd5b600080fd5b60007fffffffff0000000000000000000000000000000000000000000000000000000082169050919050565b611f9f81611f6a565b8114611faa57600080fd5b50565b600081359050611fbc81611f96565b92915050565b600060208284031215611fd857611fd7611f60565b5b6000611fe684828501611fad565b91505092915050565b60008115159050919050565b61200481611fef565b82525050565b600060208201905061201f6000830184611ffb565b92915050565b600081519050919050565b600082825260208201905092915050565b60005b8381101561205f578082015181840152602081019050612044565b60008484015250505050565b6000601f19601f8301169050919050565b600061208782612025565b6120918185612030565b93506120a1818560208601612041565b6120aa8161206b565b840191505092915050565b600060208201905081810360008301526120cf818461207c565b905092915050565b6000819050919050565b6120ea816120d7565b81146120f557600080fd5b50565b600081359050612107816120e1565b92915050565b60006020828403121561212357612122611f60565b5b6000612131848285016120f8565b91505092915050565b600073ffffffffffffffffffffffffffffffffffffffff82169050919050565b60006121658261213a565b9050919050565b6121758161215a565b82525050565b6000602082019050612190600083018461216c565b92915050565b61219f8161215a565b81146121aa57600080fd5b50565b6000813590506121bc81612196565b92915050565b600080604083850312156121d9576121d8611f60565b5b60006121e7858286016121ad565b92505060206121f8858286016120f8565b9150509250929050565b61220b816120d7565b82525050565b60006020820190506122266000830184612202565b92915050565b60008060006060848603121561224557612244611f60565b5b6000612253868287016121ad565b9350506020612264868287016121ad565b9250506040612275868287016120f8565b9150509250925092565b60006020828403121561229557612294611f60565b5b60006122a3848285016121ad565b91505092915050565b6122b581611fef565b81146122c057600080fd5b50565b6000813590506122d2816122ac565b92915050565b600080604083850312156122ef576122ee611f60565b5b60006122fd858286016121ad565b925050602061230e858286016122c3565b9150509250929050565b600080fd5b600080fd5b7f4e487b7100000000000000000000000000000000000000000000000000000000600052604160045260246000fd5b61235a8261206b565b810181811067ffffffffffffffff8211171561237957612378612322565b5b80604052505050565b600061238c611f56565b90506123988282612351565b919050565b600067ffffffffffffffff8211156123b8576123b7612322565b5b6123c18261206b565b9050602081019050919050565b82818337600083830152505050565b60006123f06123eb8461239d565b612382565b90508281526020810184848401111561240c5761240b61231d565b5b6124178482856123ce565b509392505050565b600082601f83011261243457612433612318565b5b81356124448482602086016123dd565b91505092915050565b6000806000806080858703121561246757612466611f60565b5b6000612475878288016121ad565b9450506020612486878288016121ad565b9350506040612497878288016120f8565b925050606085013567ffffffffffffffff8111156124b8576124b7611f65565b5b6124c48782880161241f565b91505092959194509250565b600067ffffffffffffffff8211156124eb576124ea612322565b5b6124f48261206b565b9050602081019050919050565b600061251461250f846124d0565b612382565b9050828152602081018484840111156125305761252f61231d565b5b61253b8482856123ce565b509392505050565b600082601f83011261255857612557612318565b5b8135612568848260208601612501565b91505092915050565b6000806040838503121561258857612587611f60565b5b6000612596858286016121ad565b925050602083013567ffffffffffffffff8111156125b7576125b6611f65565b5b6125c385828601612543565b9150509250929050565b600080604083850312156125e4576125e3611f60565b5b60006125f2858286016121ad565b9250506020612603858286016121ad565b9150509250929050565b7f4e487b7100000000000000000000000000000000000000000000000000000000600052602260045260246000fd5b6000600282049050600182168061265457607f821691505b6020821081036126675761266661260d565b5b50919050565b7f4552433732313a20617070726f76616c20746f2063757272656e74206f776e6560008201527f7200000000000000000000000000000000000000000000000000000000000000602082015250565b60006126c9602183612030565b91506126d48261266d565b604082019050919050565b600060208201905081810360008301526126f8816126bc565b9050919050565b7f4552433732313a20617070726f76652063616c6c6572206973206e6f7420746f60008201527f6b656e206f776e6572206e6f7220617070726f76656420666f7220616c6c0000602082015250565b600061275b603e83612030565b9150612766826126ff565b604082019050919050565b6000602082019050818103600083015261278a8161274e565b9050919050565b7f4552433732313a2063616c6c6572206973206e6f7420746f6b656e206f776e6560008201527f72206e6f7220617070726f766564000000000000000000000000000000000000602082015250565b60006127ed602e83612030565b91506127f882612791565b604082019050919050565b6000602082019050818103600083015261281c816127e0565b9050919050565b7f455243373231456e756d657261626c653a206f776e657220696e646578206f7560008201527f74206f6620626f756e6473000000000000000000000000000000000000000000602082015250565b600061287f602b83612030565b915061288a82612823565b604082019050919050565b600060208201905081810360008301526128ae81612872565b9050919050565b7f455243373231456e756d657261626c653a20676c6f62616c20696e646578206f60008201527f7574206f6620626f756e64730000000000000000000000000000000000000000602082015250565b6000612911602c83612030565b915061291c826128b5565b604082019050919050565b6000602082019050818103600083015261294081612904565b9050919050565b7f4e487b7100000000000000000000000000000000000000000000000000000000600052603260045260246000fd5b7f4552433732313a20696e76616c696420746f6b656e2049440000000000000000600082015250565b60006129ac601883612030565b91506129b782612976565b602082019050919050565b600060208201905081810360008301526129db8161299f565b9050919050565b7f4552433732313a2061646472657373207a65726f206973206e6f74206120766160008201527f6c6964206f776e65720000000000000000000000000000000000000000000000602082015250565b6000612a3e602983612030565b9150612a49826129e2565b604082019050919050565b60006020820190508181036000830152612a6d81612a31565b9050919050565b7f496d20736f7272792c2077652072656163686564207468652063617000000000600082015250565b6000612aaa601c83612030565b9150612ab582612a74565b602082019050919050565b60006020820190508181036000830152612ad981612a9d565b9050919050565b7f596f7520616c7265616479206861766520757020746f2066697665206974656d60008201527f7300000000000000000000000000000000000000000000000000000000000000602082015250565b6000612b3c602183612030565b9150612b4782612ae0565b604082019050919050565b60006020820190508181036000830152612b6b81612b2f565b9050919050565b7f4e487b7100000000000000000000000000000000000000000000000000000000600052601160045260246000fd5b6000612bac826120d7565b91507fffffffffffffffffffffffffffffffffffffffffffffffffffffffffffffffff8203612bde57612bdd612b72565b5b600182019050919050565b7f4552433732313a207472616e736665722066726f6d20696e636f72726563742060008201527f6f776e6572000000000000000000000000000000000000000000000000000000602082015250565b6000612c45602583612030565b9150612c5082612be9565b604082019050919050565b60006020820190508181036000830152612c7481612c38565b9050919050565b7f4552433732313a207472616e7366657220746f20746865207a65726f2061646460008201527f7265737300000000000000000000000000000000000000000000000000000000602082015250565b6000612cd7602483612030565b9150612ce282612c7b565b604082019050919050565b60006020820190508181036000830152612d0681612cca565b9050919050565b6000612d18826120d7565b9150612d23836120d7565b9250828203905081811115612d3b57612d3a612b72565b5b92915050565b6000612d4c826120d7565b9150612d57836120d7565b9250828201905080821115612d6f57612d6e612b72565b5b92915050565b7f4552433732313a20617070726f766520746f2063616c6c657200000000000000600082015250565b6000612dab601983612030565b9150612db682612d75565b602082019050919050565b60006020820190508181036000830152612dda81612d9e565b9050919050565b7f4552433732313a207472616e7366657220746f206e6f6e20455243373231526560008201527f63656976657220696d706c656d656e7465720000000000000000000000000000602082015250565b6000612e3d603283612030565b9150612e4882612de1565b604082019050919050565b60006020820190508181036000830152612e6c81612e30565b9050919050565b600081905092915050565b6000612e8982612025565b612e938185612e73565b9350612ea3818560208601612041565b80840191505092915050565b6000612ebb8285612e7e565b9150612ec78284612e7e565b91508190509392505050565b7f45524337323155524953746f726167653a2055524920736574206f66206e6f6e60008201527f6578697374656e7420746f6b656e000000000000000000000000000000000000602082015250565b6000612f2f602e83612030565b9150612f3a82612ed3565b604082019050919050565b60006020820190508181036000830152612f5e81612f22565b9050919050565b60008190508160005260206000209050919050565b60006020601f8301049050919050565b600082821b905092915050565b600060088302612fc77fffffffffffffffffffffffffffffffffffffffffffffffffffffffffffffffff82612f8a565b612fd18683612f8a565b95508019841693508086168417925050509392505050565b6000819050919050565b600061300e613009613004846120d7565b612fe9565b6120d7565b9050919050565b6000819050919050565b61302883612ff3565b61303c61303482613015565b848454612f97565b825550505050565b600090565b613051613044565b61305c81848461301f565b505050565b5b8181101561308057613075600082613049565b600181019050613062565b5050565b601f8211156130c55761309681612f65565b61309f84612f7a565b810160208510156130ae578190505b6130c26130ba85612f7a565b830182613061565b50505b505050565b600082821c905092915050565b60006130e8600019846008026130ca565b1980831691505092915050565b600061310183836130d7565b9150826002028217905092915050565b61311a82612025565b67ffffffffffffffff81111561313357613132612322565b5b61313d825461263c565b613148828285613084565b600060209050601f83116001811461317b5760008415613169578287015190505b61317385826130f5565b8655506131db565b601f19841661318986612f65565b60005b828110156131b15784890151825560018201915060208501945060208101905061318c565b868310156131ce57848901516131ca601f8916826130d7565b8355505b6001600288020188555050505b505050505050565b600081519050919050565b600082825260208201905092915050565b600061320a826131e3565b61321481856131ee565b9350613224818560208601612041565b61322d8161206b565b840191505092915050565b600060808201905061324d600083018761216c565b61325a602083018661216c565b6132676040830185612202565b818103606083015261327981846131ff565b905095945050505050565b60008151905061329381611f96565b92915050565b6000602082840312156132af576132ae611f60565b5b60006132bd84828501613284565b91505092915050565b7f4e487b7100000000000000000000000000000000000000000000000000000000600052601260045260246000fd5b6000613300826120d7565b915061330b836120d7565b92508261331b5761331a6132c6565b5b828204905092915050565b6000613331826120d7565b915061333c836120d7565b92508261334c5761334b6132c6565b5b828206905092915050565b7f4552433732313a206d696e7420746f20746865207a65726f2061646472657373600082015250565b600061338d602083612030565b915061339882613357565b602082019050919050565b600060208201905081810360008301526133bc81613380565b9050919050565b7f4552433732313a20746f6b656e20616c7265616479206d696e74656400000000600082015250565b60006133f9601c83612030565b9150613404826133c3565b602082019050919050565b60006020820190508181036000830152613428816133ec565b9050919050565b7f4e487b7100000000000000000000000000000000000000000000000000000000600052603160045260246000fdfea2646970667358221220fb0f7dcb94256fc25e7689cfebda5494d7c070f4e7b84288c5299dcf715cbb4764736f6c63430008110033",
  "linkReferences": {},
  "deployedLinkReferences": {}
}